{
  "contractName": "Collectible",
  "abi": [
    {
      "inputs": [],
      "stateMutability": "nonpayable",
      "type": "constructor"
    },
    {
      "anonymous": false,
      "inputs": [
        {
          "indexed": true,
          "internalType": "address",
          "name": "owner",
          "type": "address"
        },
        {
          "indexed": true,
          "internalType": "address",
          "name": "approved",
          "type": "address"
        },
        {
          "indexed": true,
          "internalType": "uint256",
          "name": "tokenId",
          "type": "uint256"
        }
      ],
      "name": "Approval",
      "type": "event"
    },
    {
      "anonymous": false,
      "inputs": [
        {
          "indexed": true,
          "internalType": "address",
          "name": "owner",
          "type": "address"
        },
        {
          "indexed": true,
          "internalType": "address",
          "name": "operator",
          "type": "address"
        },
        {
          "indexed": false,
          "internalType": "bool",
          "name": "approved",
          "type": "bool"
        }
      ],
      "name": "ApprovalForAll",
      "type": "event"
    },
    {
      "anonymous": false,
      "inputs": [
        {
          "indexed": true,
          "internalType": "address",
          "name": "previousOwner",
          "type": "address"
        },
        {
          "indexed": true,
          "internalType": "address",
          "name": "newOwner",
          "type": "address"
        }
      ],
      "name": "OwnershipTransferred",
      "type": "event"
    },
    {
      "anonymous": false,
      "inputs": [
        {
          "indexed": true,
          "internalType": "address",
          "name": "from",
          "type": "address"
        },
        {
          "indexed": true,
          "internalType": "address",
          "name": "to",
          "type": "address"
        },
        {
          "indexed": true,
          "internalType": "uint256",
          "name": "tokenId",
          "type": "uint256"
        }
      ],
      "name": "Transfer",
      "type": "event"
    },
    {
      "inputs": [
        {
          "internalType": "address",
          "name": "to",
          "type": "address"
        },
        {
          "internalType": "uint256",
          "name": "tokenId",
          "type": "uint256"
        }
      ],
      "name": "approve",
      "outputs": [],
      "stateMutability": "nonpayable",
      "type": "function"
    },
    {
      "inputs": [
        {
          "internalType": "address",
          "name": "owner",
          "type": "address"
        }
      ],
      "name": "balanceOf",
      "outputs": [
        {
          "internalType": "uint256",
          "name": "",
          "type": "uint256"
        }
      ],
      "stateMutability": "view",
      "type": "function"
    },
    {
      "inputs": [
        {
          "internalType": "uint256",
          "name": "tokenId",
          "type": "uint256"
        }
      ],
      "name": "getApproved",
      "outputs": [
        {
          "internalType": "address",
          "name": "",
          "type": "address"
        }
      ],
      "stateMutability": "view",
      "type": "function"
    },
    {
      "inputs": [
        {
          "internalType": "string",
          "name": "",
          "type": "string"
        }
      ],
      "name": "hasBeenMinted",
      "outputs": [
        {
          "internalType": "bool",
          "name": "",
          "type": "bool"
        }
      ],
      "stateMutability": "view",
      "type": "function"
    },
    {
      "inputs": [
        {
          "internalType": "address",
          "name": "owner",
          "type": "address"
        },
        {
          "internalType": "address",
          "name": "operator",
          "type": "address"
        }
      ],
      "name": "isApprovedForAll",
      "outputs": [
        {
          "internalType": "bool",
          "name": "",
          "type": "bool"
        }
      ],
      "stateMutability": "view",
      "type": "function"
    },
    {
      "inputs": [
        {
          "internalType": "uint256",
          "name": "",
          "type": "uint256"
        }
      ],
      "name": "items",
      "outputs": [
        {
          "internalType": "address",
          "name": "owner",
          "type": "address"
        },
        {
          "internalType": "address",
          "name": "creator",
          "type": "address"
        },
        {
          "internalType": "uint256",
          "name": "royalty",
          "type": "uint256"
        }
      ],
      "stateMutability": "view",
      "type": "function"
    },
    {
      "inputs": [],
      "name": "name",
      "outputs": [
        {
          "internalType": "string",
          "name": "",
          "type": "string"
        }
      ],
      "stateMutability": "view",
      "type": "function"
    },
    {
      "inputs": [],
      "name": "owner",
      "outputs": [
        {
          "internalType": "address",
          "name": "",
          "type": "address"
        }
      ],
      "stateMutability": "view",
      "type": "function"
    },
    {
      "inputs": [
        {
          "internalType": "uint256",
          "name": "tokenId",
          "type": "uint256"
        }
      ],
      "name": "ownerOf",
      "outputs": [
        {
          "internalType": "address",
          "name": "",
          "type": "address"
        }
      ],
      "stateMutability": "view",
      "type": "function"
    },
    {
      "inputs": [],
      "name": "renounceOwnership",
      "outputs": [],
      "stateMutability": "nonpayable",
      "type": "function"
    },
    {
      "inputs": [
        {
          "internalType": "address",
          "name": "from",
          "type": "address"
        },
        {
          "internalType": "address",
          "name": "to",
          "type": "address"
        },
        {
          "internalType": "uint256",
          "name": "tokenId",
          "type": "uint256"
        }
      ],
      "name": "safeTransferFrom",
      "outputs": [],
      "stateMutability": "nonpayable",
      "type": "function"
    },
    {
      "inputs": [
        {
          "internalType": "address",
          "name": "from",
          "type": "address"
        },
        {
          "internalType": "address",
          "name": "to",
          "type": "address"
        },
        {
          "internalType": "uint256",
          "name": "tokenId",
          "type": "uint256"
        },
        {
          "internalType": "bytes",
          "name": "_data",
          "type": "bytes"
        }
      ],
      "name": "safeTransferFrom",
      "outputs": [],
      "stateMutability": "nonpayable",
      "type": "function"
    },
    {
      "inputs": [
        {
          "internalType": "address",
          "name": "operator",
          "type": "address"
        },
        {
          "internalType": "bool",
          "name": "approved",
          "type": "bool"
        }
      ],
      "name": "setApprovalForAll",
      "outputs": [],
      "stateMutability": "nonpayable",
      "type": "function"
    },
    {
      "inputs": [
        {
          "internalType": "bytes4",
          "name": "interfaceId",
          "type": "bytes4"
        }
      ],
      "name": "supportsInterface",
      "outputs": [
        {
          "internalType": "bool",
          "name": "",
          "type": "bool"
        }
      ],
      "stateMutability": "view",
      "type": "function"
    },
    {
      "inputs": [],
      "name": "symbol",
      "outputs": [
        {
          "internalType": "string",
          "name": "",
          "type": "string"
        }
      ],
      "stateMutability": "view",
      "type": "function"
    },
    {
      "inputs": [
        {
          "internalType": "uint256",
          "name": "",
          "type": "uint256"
        }
      ],
      "name": "tokenIdToItem",
      "outputs": [
        {
          "internalType": "address",
          "name": "owner",
          "type": "address"
        },
        {
          "internalType": "address",
          "name": "creator",
          "type": "address"
        },
        {
          "internalType": "uint256",
          "name": "royalty",
          "type": "uint256"
        }
      ],
      "stateMutability": "view",
      "type": "function"
    },
    {
      "inputs": [
        {
          "internalType": "uint256",
          "name": "tokenId",
          "type": "uint256"
        }
      ],
      "name": "tokenURI",
      "outputs": [
        {
          "internalType": "string",
          "name": "",
          "type": "string"
        }
      ],
      "stateMutability": "view",
      "type": "function"
    },
    {
      "inputs": [
        {
          "internalType": "address",
          "name": "from",
          "type": "address"
        },
        {
          "internalType": "address",
          "name": "to",
          "type": "address"
        },
        {
          "internalType": "uint256",
          "name": "tokenId",
          "type": "uint256"
        }
      ],
      "name": "transferFrom",
      "outputs": [],
      "stateMutability": "nonpayable",
      "type": "function"
    },
    {
      "inputs": [
        {
          "internalType": "address",
          "name": "newOwner",
          "type": "address"
        }
      ],
      "name": "transferOwnership",
      "outputs": [],
      "stateMutability": "nonpayable",
      "type": "function"
    },
    {
      "inputs": [
        {
          "internalType": "string",
          "name": "metadata",
          "type": "string"
        },
        {
          "internalType": "uint256",
          "name": "royalty",
          "type": "uint256"
        }
      ],
      "name": "createCollectible",
      "outputs": [
        {
          "internalType": "uint256",
          "name": "",
          "type": "uint256"
        }
      ],
      "stateMutability": "nonpayable",
      "type": "function"
    }
  ],
  "bytecode": "0x60806040523480156200001157600080fd5b506040518060400160405280600e81526020017f4e4654436f6c6c65637469626c650000000000000000000000000000000000008152506040518060400160405280600481526020017f4e46544300000000000000000000000000000000000000000000000000000000815250816000908051906020019062000096929190620001a6565b508060019080519060200190620000af929190620001a6565b505050620000d2620000c6620000d860201b60201c565b620000e060201b60201c565b620002bb565b600033905090565b6000600760009054906101000a900473ffffffffffffffffffffffffffffffffffffffff16905081600760006101000a81548173ffffffffffffffffffffffffffffffffffffffff021916908373ffffffffffffffffffffffffffffffffffffffff1602179055508173ffffffffffffffffffffffffffffffffffffffff168173ffffffffffffffffffffffffffffffffffffffff167f8be0079c531659141344cd1fd0a4f28419497f9722a3daafe3b4186f6b6457e060405160405180910390a35050565b828054620001b49062000256565b90600052602060002090601f016020900481019282620001d8576000855562000224565b82601f10620001f357805160ff191683800117855562000224565b8280016001018555821562000224579182015b828111156200022357825182559160200191906001019062000206565b5b50905062000233919062000237565b5090565b5b808211156200025257600081600090555060010162000238565b5090565b600060028204905060018216806200026f57607f821691505b602082108114156200028657620002856200028c565b5b50919050565b7f4e487b7100000000000000000000000000000000000000000000000000000000600052602260045260246000fd5b61351080620002cb6000396000f3fe608060405234801561001057600080fd5b506004361061012c5760003560e01c8063715018a6116100ad578063b88d4fde11610071578063b88d4fde14610357578063bfb231d214610373578063c87b56dd146103a5578063e985e9c5146103d5578063f2fde38b146104055761012c565b8063715018a6146102c55780638da5cb5b146102cf57806395d89b41146102ed578063a22cb4651461030b578063b10d7824146103275761012c565b806323b872dd116100f457806323b872dd146101fb57806342842e0e146102175780635d36a364146102335780636352211e1461026557806370a08231146102955761012c565b806301ffc9a71461013157806306fdde0314610161578063081812fc1461017f578063095ea7b3146101af5780631f061a29146101cb575b600080fd5b61014b60048036038101906101469190612259565b610421565b60405161015891906127ea565b60405180910390f35b610169610503565b6040516101769190612805565b60405180910390f35b61019960048036038101906101949190612358565b610595565b6040516101a6919061274c565b60405180910390f35b6101c960048036038101906101c49190612219565b61061a565b005b6101e560048036038101906101e091906122fc565b610732565b6040516101f29190612aa7565b60405180910390f35b61021560048036038101906102109190612103565b610925565b005b610231600480360381019061022c9190612103565b610985565b005b61024d60048036038101906102489190612358565b6109a5565b60405161025c93929190612767565b60405180910390f35b61027f600480360381019061027a9190612358565b610a0f565b60405161028c919061274c565b60405180910390f35b6102af60048036038101906102aa9190612096565b610ac1565b6040516102bc9190612aa7565b60405180910390f35b6102cd610b79565b005b6102d7610c01565b6040516102e4919061274c565b60405180910390f35b6102f5610c2b565b6040516103029190612805565b60405180910390f35b610325600480360381019061032091906121d9565b610cbd565b005b610341600480360381019061033c91906122b3565b610e3e565b60405161034e91906127ea565b60405180910390f35b610371600480360381019061036c9190612156565b610e74565b005b61038d60048036038101906103889190612358565b610ed6565b60405161039c93929190612767565b60405180910390f35b6103bf60048036038101906103ba9190612358565b610f50565b6040516103cc9190612805565b60405180910390f35b6103ef60048036038101906103ea91906120c3565b6110a2565b6040516103fc91906127ea565b60405180910390f35b61041f600480360381019061041a9190612096565b611136565b005b60007f80ac58cd000000000000000000000000000000000000000000000000000000007bffffffffffffffffffffffffffffffffffffffffffffffffffffffff1916827bffffffffffffffffffffffffffffffffffffffffffffffffffffffff191614806104ec57507f5b5e139f000000000000000000000000000000000000000000000000000000007bffffffffffffffffffffffffffffffffffffffffffffffffffffffff1916827bffffffffffffffffffffffffffffffffffffffffffffffffffffffff1916145b806104fc57506104fb8261122e565b5b9050919050565b60606000805461051290612cfd565b80601f016020809104026020016040519081016040528092919081815260200182805461053e90612cfd565b801561058b5780601f106105605761010080835404028352916020019161058b565b820191906000526020600020905b81548152906001019060200180831161056e57829003601f168201915b5050505050905090565b60006105a082611298565b6105df576040517f08c379a00000000000000000000000000000000000000000000000000000000081526004016105d6906129c7565b60405180910390fd5b6004600083815260200190815260200160002060009054906101000a900473ffffffffffffffffffffffffffffffffffffffff169050919050565b600061062582610a0f565b90508073ffffffffffffffffffffffffffffffffffffffff168373ffffffffffffffffffffffffffffffffffffffff161415610696576040517f08c379a000000000000000000000000000000000000000000000000000000000815260040161068d90612a67565b60405180910390fd5b8073ffffffffffffffffffffffffffffffffffffffff166106b5611304565b73ffffffffffffffffffffffffffffffffffffffff1614806106e457506106e3816106de611304565b6110a2565b5b610723576040517f08c379a000000000000000000000000000000000000000000000000000000000815260040161071a90612907565b60405180910390fd5b61072d838361130c565b505050565b60006008836040516107449190612711565b908152602001604051809103902060009054906101000a900460ff16156107a0576040517f08c379a0000000000000000000000000000000000000000000000000000000008152600401610797906128e7565b60405180910390fd5b600082101580156107b2575060288211155b6107f1576040517f08c379a00000000000000000000000000000000000000000000000000000000081526004016107e890612a07565b60405180910390fd5b6000600a805490509050600a60405180606001604052803373ffffffffffffffffffffffffffffffffffffffff1681526020013373ffffffffffffffffffffffffffffffffffffffff16815260200185815250908060018154018082558091505060019003906000526020600020906003020160009091909190915060008201518160000160006101000a81548173ffffffffffffffffffffffffffffffffffffffff021916908373ffffffffffffffffffffffffffffffffffffffff16021790555060208201518160010160006101000a81548173ffffffffffffffffffffffffffffffffffffffff021916908373ffffffffffffffffffffffffffffffffffffffff16021790555060408201518160020155505061091133826113c5565b61091b81856113e3565b8091505092915050565b610936610930611304565b82611457565b610975576040517f08c379a000000000000000000000000000000000000000000000000000000000815260040161096c90612a87565b60405180910390fd5b610980838383611535565b505050565b6109a083838360405180602001604052806000815250610e74565b505050565b60096020528060005260406000206000915090508060000160009054906101000a900473ffffffffffffffffffffffffffffffffffffffff16908060010160009054906101000a900473ffffffffffffffffffffffffffffffffffffffff16908060020154905083565b6000806002600084815260200190815260200160002060009054906101000a900473ffffffffffffffffffffffffffffffffffffffff169050600073ffffffffffffffffffffffffffffffffffffffff168173ffffffffffffffffffffffffffffffffffffffff161415610ab8576040517f08c379a0000000000000000000000000000000000000000000000000000000008152600401610aaf90612947565b60405180910390fd5b80915050919050565b60008073ffffffffffffffffffffffffffffffffffffffff168273ffffffffffffffffffffffffffffffffffffffff161415610b32576040517f08c379a0000000000000000000000000000000000000000000000000000000008152600401610b2990612927565b60405180910390fd5b600360008373ffffffffffffffffffffffffffffffffffffffff1673ffffffffffffffffffffffffffffffffffffffff168152602001908152602001600020549050919050565b610b81611304565b73ffffffffffffffffffffffffffffffffffffffff16610b9f610c01565b73ffffffffffffffffffffffffffffffffffffffff1614610bf5576040517f08c379a0000000000000000000000000000000000000000000000000000000008152600401610bec906129e7565b60405180910390fd5b610bff6000611791565b565b6000600760009054906101000a900473ffffffffffffffffffffffffffffffffffffffff16905090565b606060018054610c3a90612cfd565b80601f0160208091040260200160405190810160405280929190818152602001828054610c6690612cfd565b8015610cb35780601f10610c8857610100808354040283529160200191610cb3565b820191906000526020600020905b815481529060010190602001808311610c9657829003601f168201915b5050505050905090565b610cc5611304565b73ffffffffffffffffffffffffffffffffffffffff168273ffffffffffffffffffffffffffffffffffffffff161415610d33576040517f08c379a0000000000000000000000000000000000000000000000000000000008152600401610d2a906128a7565b60405180910390fd5b8060056000610d40611304565b73ffffffffffffffffffffffffffffffffffffffff1673ffffffffffffffffffffffffffffffffffffffff16815260200190815260200160002060008473ffffffffffffffffffffffffffffffffffffffff1673ffffffffffffffffffffffffffffffffffffffff16815260200190815260200160002060006101000a81548160ff0219169083151502179055508173ffffffffffffffffffffffffffffffffffffffff16610ded611304565b73ffffffffffffffffffffffffffffffffffffffff167f17307eab39ab6107e8899845ad3d59bd9653f200f220920489ca2b5937696c3183604051610e3291906127ea565b60405180910390a35050565b6008818051602081018201805184825260208301602085012081835280955050505050506000915054906101000a900460ff1681565b610e85610e7f611304565b83611457565b610ec4576040517f08c379a0000000000000000000000000000000000000000000000000000000008152600401610ebb90612a87565b60405180910390fd5b610ed084848484611857565b50505050565b600a8181548110610ee657600080fd5b90600052602060002090600302016000915090508060000160009054906101000a900473ffffffffffffffffffffffffffffffffffffffff16908060010160009054906101000a900473ffffffffffffffffffffffffffffffffffffffff16908060020154905083565b6060610f5b82611298565b610f9a576040517f08c379a0000000000000000000000000000000000000000000000000000000008152600401610f91906129a7565b60405180910390fd5b6000600660008481526020019081526020016000208054610fba90612cfd565b80601f0160208091040260200160405190810160405280929190818152602001828054610fe690612cfd565b80156110335780601f1061100857610100808354040283529160200191611033565b820191906000526020600020905b81548152906001019060200180831161101657829003601f168201915b5050505050905060006110446118b3565b905060008151141561105a57819250505061109d565b60008251111561108f578082604051602001611077929190612728565b6040516020818303038152906040529250505061109d565b611098846118ca565b925050505b919050565b6000600560008473ffffffffffffffffffffffffffffffffffffffff1673ffffffffffffffffffffffffffffffffffffffff16815260200190815260200160002060008373ffffffffffffffffffffffffffffffffffffffff1673ffffffffffffffffffffffffffffffffffffffff16815260200190815260200160002060009054906101000a900460ff16905092915050565b61113e611304565b73ffffffffffffffffffffffffffffffffffffffff1661115c610c01565b73ffffffffffffffffffffffffffffffffffffffff16146111b2576040517f08c379a00000000000000000000000000000000000000000000000000000000081526004016111a9906129e7565b60405180910390fd5b600073ffffffffffffffffffffffffffffffffffffffff168173ffffffffffffffffffffffffffffffffffffffff161415611222576040517f08c379a000000000000000000000000000000000000000000000000000000000815260040161121990612847565b60405180910390fd5b61122b81611791565b50565b60007f01ffc9a7000000000000000000000000000000000000000000000000000000007bffffffffffffffffffffffffffffffffffffffffffffffffffffffff1916827bffffffffffffffffffffffffffffffffffffffffffffffffffffffff1916149050919050565b60008073ffffffffffffffffffffffffffffffffffffffff166002600084815260200190815260200160002060009054906101000a900473ffffffffffffffffffffffffffffffffffffffff1673ffffffffffffffffffffffffffffffffffffffff1614159050919050565b600033905090565b816004600083815260200190815260200160002060006101000a81548173ffffffffffffffffffffffffffffffffffffffff021916908373ffffffffffffffffffffffffffffffffffffffff160217905550808273ffffffffffffffffffffffffffffffffffffffff1661137f83610a0f565b73ffffffffffffffffffffffffffffffffffffffff167f8c5be1e5ebec7d5bd14f71427d1e84f3dd0314c0f7b2291e5b200ac8c7c3b92560405160405180910390a45050565b6113df828260405180602001604052806000815250611971565b5050565b6113ec82611298565b61142b576040517f08c379a000000000000000000000000000000000000000000000000000000000815260040161142290612967565b60405180910390fd5b80600660008481526020019081526020016000209080519060200190611452929190611eaa565b505050565b600061146282611298565b6114a1576040517f08c379a0000000000000000000000000000000000000000000000000000000008152600401611498906128c7565b60405180910390fd5b60006114ac83610a0f565b90508073ffffffffffffffffffffffffffffffffffffffff168473ffffffffffffffffffffffffffffffffffffffff16148061151b57508373ffffffffffffffffffffffffffffffffffffffff1661150384610595565b73ffffffffffffffffffffffffffffffffffffffff16145b8061152c575061152b81856110a2565b5b91505092915050565b8273ffffffffffffffffffffffffffffffffffffffff1661155582610a0f565b73ffffffffffffffffffffffffffffffffffffffff16146115ab576040517f08c379a00000000000000000000000000000000000000000000000000000000081526004016115a290612a27565b60405180910390fd5b600073ffffffffffffffffffffffffffffffffffffffff168273ffffffffffffffffffffffffffffffffffffffff16141561161b576040517f08c379a000000000000000000000000000000000000000000000000000000000815260040161161290612887565b60405180910390fd5b6116268383836119cc565b61163160008261130c565b6001600360008573ffffffffffffffffffffffffffffffffffffffff1673ffffffffffffffffffffffffffffffffffffffff16815260200190815260200160002060008282546116819190612c13565b925050819055506001600360008473ffffffffffffffffffffffffffffffffffffffff1673ffffffffffffffffffffffffffffffffffffffff16815260200190815260200160002060008282546116d89190612b8c565b92505081905550816002600083815260200190815260200160002060006101000a81548173ffffffffffffffffffffffffffffffffffffffff021916908373ffffffffffffffffffffffffffffffffffffffff160217905550808273ffffffffffffffffffffffffffffffffffffffff168473ffffffffffffffffffffffffffffffffffffffff167fddf252ad1be2c89b69c2b068fc378daa952ba7f163c4a11628f55a4df523b3ef60405160405180910390a4505050565b6000600760009054906101000a900473ffffffffffffffffffffffffffffffffffffffff16905081600760006101000a81548173ffffffffffffffffffffffffffffffffffffffff021916908373ffffffffffffffffffffffffffffffffffffffff1602179055508173ffffffffffffffffffffffffffffffffffffffff168173ffffffffffffffffffffffffffffffffffffffff167f8be0079c531659141344cd1fd0a4f28419497f9722a3daafe3b4186f6b6457e060405160405180910390a35050565b611862848484611535565b61186e848484846119d1565b6118ad576040517f08c379a00000000000000000000000000000000000000000000000000000000081526004016118a490612827565b60405180910390fd5b50505050565b606060405180602001604052806000815250905090565b60606118d582611298565b611914576040517f08c379a000000000000000000000000000000000000000000000000000000000815260040161190b90612a47565b60405180910390fd5b600061191e6118b3565b9050600081511161193e5760405180602001604052806000815250611969565b8061194884611b68565b604051602001611959929190612728565b6040516020818303038152906040525b915050919050565b61197b8383611cc9565b61198860008484846119d1565b6119c7576040517f08c379a00000000000000000000000000000000000000000000000000000000081526004016119be90612827565b60405180910390fd5b505050565b505050565b60006119f28473ffffffffffffffffffffffffffffffffffffffff16611e97565b15611b5b578373ffffffffffffffffffffffffffffffffffffffff1663150b7a02611a1b611304565b8786866040518563ffffffff1660e01b8152600401611a3d949392919061279e565b602060405180830381600087803b158015611a5757600080fd5b505af1925050508015611a8857506040513d601f19601f82011682018060405250810190611a859190612286565b60015b611b0b573d8060008114611ab8576040519150601f19603f3d011682016040523d82523d6000602084013e611abd565b606091505b50600081511415611b03576040517f08c379a0000000000000000000000000000000000000000000000000000000008152600401611afa90612827565b60405180910390fd5b805181602001fd5b63150b7a0260e01b7bffffffffffffffffffffffffffffffffffffffffffffffffffffffff1916817bffffffffffffffffffffffffffffffffffffffffffffffffffffffff191614915050611b60565b600190505b949350505050565b60606000821415611bb0576040518060400160405280600181526020017f30000000000000000000000000000000000000000000000000000000000000008152509050611cc4565b600082905060005b60008214611be2578080611bcb90612d60565b915050600a82611bdb9190612be2565b9150611bb8565b60008167ffffffffffffffff811115611bfe57611bfd612e96565b5b6040519080825280601f01601f191660200182016040528015611c305781602001600182028036833780820191505090505b5090505b60008514611cbd57600182611c499190612c13565b9150600a85611c589190612da9565b6030611c649190612b8c565b60f81b818381518110611c7a57611c79612e67565b5b60200101907effffffffffffffffffffffffffffffffffffffffffffffffffffffffffffff1916908160001a905350600a85611cb69190612be2565b9450611c34565b8093505050505b919050565b600073ffffffffffffffffffffffffffffffffffffffff168273ffffffffffffffffffffffffffffffffffffffff161415611d39576040517f08c379a0000000000000000000000000000000000000000000000000000000008152600401611d3090612987565b60405180910390fd5b611d4281611298565b15611d82576040517f08c379a0000000000000000000000000000000000000000000000000000000008152600401611d7990612867565b60405180910390fd5b611d8e600083836119cc565b6001600360008473ffffffffffffffffffffffffffffffffffffffff1673ffffffffffffffffffffffffffffffffffffffff1681526020019081526020016000206000828254611dde9190612b8c565b92505081905550816002600083815260200190815260200160002060006101000a81548173ffffffffffffffffffffffffffffffffffffffff021916908373ffffffffffffffffffffffffffffffffffffffff160217905550808273ffffffffffffffffffffffffffffffffffffffff16600073ffffffffffffffffffffffffffffffffffffffff167fddf252ad1be2c89b69c2b068fc378daa952ba7f163c4a11628f55a4df523b3ef60405160405180910390a45050565b600080823b905060008111915050919050565b828054611eb690612cfd565b90600052602060002090601f016020900481019282611ed85760008555611f1f565b82601f10611ef157805160ff1916838001178555611f1f565b82800160010185558215611f1f579182015b82811115611f1e578251825591602001919060010190611f03565b5b509050611f2c9190611f30565b5090565b5b80821115611f49576000816000905550600101611f31565b5090565b6000611f60611f5b84612ae7565b612ac2565b905082815260208101848484011115611f7c57611f7b612eca565b5b611f87848285612cbb565b509392505050565b6000611fa2611f9d84612b18565b612ac2565b905082815260208101848484011115611fbe57611fbd612eca565b5b611fc9848285612cbb565b509392505050565b600081359050611fe08161347e565b92915050565b600081359050611ff581613495565b92915050565b60008135905061200a816134ac565b92915050565b60008151905061201f816134ac565b92915050565b600082601f83011261203a57612039612ec5565b5b813561204a848260208601611f4d565b91505092915050565b600082601f83011261206857612067612ec5565b5b8135612078848260208601611f8f565b91505092915050565b600081359050612090816134c3565b92915050565b6000602082840312156120ac576120ab612ed4565b5b60006120ba84828501611fd1565b91505092915050565b600080604083850312156120da576120d9612ed4565b5b60006120e885828601611fd1565b92505060206120f985828601611fd1565b9150509250929050565b60008060006060848603121561211c5761211b612ed4565b5b600061212a86828701611fd1565b935050602061213b86828701611fd1565b925050604061214c86828701612081565b9150509250925092565b600080600080608085870312156121705761216f612ed4565b5b600061217e87828801611fd1565b945050602061218f87828801611fd1565b93505060406121a087828801612081565b925050606085013567ffffffffffffffff8111156121c1576121c0612ecf565b5b6121cd87828801612025565b91505092959194509250565b600080604083850312156121f0576121ef612ed4565b5b60006121fe85828601611fd1565b925050602061220f85828601611fe6565b9150509250929050565b600080604083850312156122305761222f612ed4565b5b600061223e85828601611fd1565b925050602061224f85828601612081565b9150509250929050565b60006020828403121561226f5761226e612ed4565b5b600061227d84828501611ffb565b91505092915050565b60006020828403121561229c5761229b612ed4565b5b60006122aa84828501612010565b91505092915050565b6000602082840312156122c9576122c8612ed4565b5b600082013567ffffffffffffffff8111156122e7576122e6612ecf565b5b6122f384828501612053565b91505092915050565b6000806040838503121561231357612312612ed4565b5b600083013567ffffffffffffffff81111561233157612330612ecf565b5b61233d85828601612053565b925050602061234e85828601612081565b9150509250929050565b60006020828403121561236e5761236d612ed4565b5b600061237c84828501612081565b91505092915050565b61238e81612c47565b82525050565b61239d81612c59565b82525050565b60006123ae82612b49565b6123b88185612b5f565b93506123c8818560208601612cca565b6123d181612ed9565b840191505092915050565b60006123e782612b54565b6123f18185612b70565b9350612401818560208601612cca565b61240a81612ed9565b840191505092915050565b600061242082612b54565b61242a8185612b81565b935061243a818560208601612cca565b80840191505092915050565b6000612453603283612b70565b915061245e82612eea565b604082019050919050565b6000612476602683612b70565b915061248182612f39565b604082019050919050565b6000612499601c83612b70565b91506124a482612f88565b602082019050919050565b60006124bc602483612b70565b91506124c782612fb1565b604082019050919050565b60006124df601983612b70565b91506124ea82613000565b602082019050919050565b6000612502602c83612b70565b915061250d82613029565b604082019050919050565b6000612525603383612b70565b915061253082613078565b604082019050919050565b6000612548603883612b70565b9150612553826130c7565b604082019050919050565b600061256b602a83612b70565b915061257682613116565b604082019050919050565b600061258e602983612b70565b915061259982613165565b604082019050919050565b60006125b1602e83612b70565b91506125bc826131b4565b604082019050919050565b60006125d4602083612b70565b91506125df82613203565b602082019050919050565b60006125f7603183612b70565b91506126028261322c565b604082019050919050565b600061261a602c83612b70565b91506126258261327b565b604082019050919050565b600061263d602083612b70565b9150612648826132ca565b602082019050919050565b6000612660602483612b70565b915061266b826132f3565b604082019050919050565b6000612683602983612b70565b915061268e82613342565b604082019050919050565b60006126a6602f83612b70565b91506126b182613391565b604082019050919050565b60006126c9602183612b70565b91506126d4826133e0565b604082019050919050565b60006126ec603183612b70565b91506126f78261342f565b604082019050919050565b61270b81612cb1565b82525050565b600061271d8284612415565b915081905092915050565b60006127348285612415565b91506127408284612415565b91508190509392505050565b60006020820190506127616000830184612385565b92915050565b600060608201905061277c6000830186612385565b6127896020830185612385565b6127966040830184612702565b949350505050565b60006080820190506127b36000830187612385565b6127c06020830186612385565b6127cd6040830185612702565b81810360608301526127df81846123a3565b905095945050505050565b60006020820190506127ff6000830184612394565b92915050565b6000602082019050818103600083015261281f81846123dc565b905092915050565b6000602082019050818103600083015261284081612446565b9050919050565b6000602082019050818103600083015261286081612469565b9050919050565b600060208201905081810360008301526128808161248c565b9050919050565b600060208201905081810360008301526128a0816124af565b9050919050565b600060208201905081810360008301526128c0816124d2565b9050919050565b600060208201905081810360008301526128e0816124f5565b9050919050565b6000602082019050818103600083015261290081612518565b9050919050565b600060208201905081810360008301526129208161253b565b9050919050565b600060208201905081810360008301526129408161255e565b9050919050565b6000602082019050818103600083015261296081612581565b9050919050565b60006020820190508181036000830152612980816125a4565b9050919050565b600060208201905081810360008301526129a0816125c7565b9050919050565b600060208201905081810360008301526129c0816125ea565b9050919050565b600060208201905081810360008301526129e08161260d565b9050919050565b60006020820190508181036000830152612a0081612630565b9050919050565b60006020820190508181036000830152612a2081612653565b9050919050565b60006020820190508181036000830152612a4081612676565b9050919050565b60006020820190508181036000830152612a6081612699565b9050919050565b60006020820190508181036000830152612a80816126bc565b9050919050565b60006020820190508181036000830152612aa0816126df565b9050919050565b6000602082019050612abc6000830184612702565b92915050565b6000612acc612add565b9050612ad88282612d2f565b919050565b6000604051905090565b600067ffffffffffffffff821115612b0257612b01612e96565b5b612b0b82612ed9565b9050602081019050919050565b600067ffffffffffffffff821115612b3357612b32612e96565b5b612b3c82612ed9565b9050602081019050919050565b600081519050919050565b600081519050919050565b600082825260208201905092915050565b600082825260208201905092915050565b600081905092915050565b6000612b9782612cb1565b9150612ba283612cb1565b9250827fffffffffffffffffffffffffffffffffffffffffffffffffffffffffffffffff03821115612bd757612bd6612dda565b5b828201905092915050565b6000612bed82612cb1565b9150612bf883612cb1565b925082612c0857612c07612e09565b5b828204905092915050565b6000612c1e82612cb1565b9150612c2983612cb1565b925082821015612c3c57612c3b612dda565b5b828203905092915050565b6000612c5282612c91565b9050919050565b60008115159050919050565b60007fffffffff0000000000000000000000000000000000000000000000000000000082169050919050565b600073ffffffffffffffffffffffffffffffffffffffff82169050919050565b6000819050919050565b82818337600083830152505050565b60005b83811015612ce8578082015181840152602081019050612ccd565b83811115612cf7576000848401525b50505050565b60006002820490506001821680612d1557607f821691505b60208210811415612d2957612d28612e38565b5b50919050565b612d3882612ed9565b810181811067ffffffffffffffff82111715612d5757612d56612e96565b5b80604052505050565b6000612d6b82612cb1565b91507fffffffffffffffffffffffffffffffffffffffffffffffffffffffffffffffff821415612d9e57612d9d612dda565b5b600182019050919050565b6000612db482612cb1565b9150612dbf83612cb1565b925082612dcf57612dce612e09565b5b828206905092915050565b7f4e487b7100000000000000000000000000000000000000000000000000000000600052601160045260246000fd5b7f4e487b7100000000000000000000000000000000000000000000000000000000600052601260045260246000fd5b7f4e487b7100000000000000000000000000000000000000000000000000000000600052602260045260246000fd5b7f4e487b7100000000000000000000000000000000000000000000000000000000600052603260045260246000fd5b7f4e487b7100000000000000000000000000000000000000000000000000000000600052604160045260246000fd5b600080fd5b600080fd5b600080fd5b600080fd5b6000601f19601f8301169050919050565b7f4552433732313a207472616e7366657220746f206e6f6e20455243373231526560008201527f63656976657220696d706c656d656e7465720000000000000000000000000000602082015250565b7f4f776e61626c653a206e6577206f776e657220697320746865207a65726f206160008201527f6464726573730000000000000000000000000000000000000000000000000000602082015250565b7f4552433732313a20746f6b656e20616c7265616479206d696e74656400000000600082015250565b7f4552433732313a207472616e7366657220746f20746865207a65726f2061646460008201527f7265737300000000000000000000000000000000000000000000000000000000602082015250565b7f4552433732313a20617070726f766520746f2063616c6c657200000000000000600082015250565b7f4552433732313a206f70657261746f7220717565727920666f72206e6f6e657860008201527f697374656e7420746f6b656e0000000000000000000000000000000000000000602082015250565b7f54686973206d657461646174612068617320616c7265616479206265656e207560008201527f73656420746f206d696e7420616e204e46542100000000000000000000000000602082015250565b7f4552433732313a20617070726f76652063616c6c6572206973206e6f74206f7760008201527f6e6572206e6f7220617070726f76656420666f7220616c6c0000000000000000602082015250565b7f4552433732313a2062616c616e636520717565727920666f7220746865207a6560008201527f726f206164647265737300000000000000000000000000000000000000000000602082015250565b7f4552433732313a206f776e657220717565727920666f72206e6f6e657869737460008201527f656e7420746f6b656e0000000000000000000000000000000000000000000000602082015250565b7f45524337323155524953746f726167653a2055524920736574206f66206e6f6e60008201527f6578697374656e7420746f6b656e000000000000000000000000000000000000602082015250565b7f4552433732313a206d696e7420746f20746865207a65726f2061646472657373600082015250565b7f45524337323155524953746f726167653a2055524920717565727920666f722060008201527f6e6f6e6578697374656e7420746f6b656e000000000000000000000000000000602082015250565b7f4552433732313a20617070726f76656420717565727920666f72206e6f6e657860008201527f697374656e7420746f6b656e0000000000000000000000000000000000000000602082015250565b7f4f776e61626c653a2063616c6c6572206973206e6f7420746865206f776e6572600082015250565b7f526f79616c74696573206d757374206265206265747765656e20302520616e6460008201527f2034302500000000000000000000000000000000000000000000000000000000602082015250565b7f4552433732313a207472616e73666572206f6620746f6b656e2074686174206960008201527f73206e6f74206f776e0000000000000000000000000000000000000000000000602082015250565b7f4552433732314d657461646174613a2055524920717565727920666f72206e6f60008201527f6e6578697374656e7420746f6b656e0000000000000000000000000000000000602082015250565b7f4552433732313a20617070726f76616c20746f2063757272656e74206f776e6560008201527f7200000000000000000000000000000000000000000000000000000000000000602082015250565b7f4552433732313a207472616e736665722063616c6c6572206973206e6f74206f60008201527f776e6572206e6f7220617070726f766564000000000000000000000000000000602082015250565b61348781612c47565b811461349257600080fd5b50565b61349e81612c59565b81146134a957600080fd5b50565b6134b581612c65565b81146134c057600080fd5b50565b6134cc81612cb1565b81146134d757600080fd5b5056fea264697066735822122027fae854c31bc653acc8ff94e7f9e9af013d7f55d95b64d1e305db79e36fbb2164736f6c63430008060033",
  "immutableReferences": {},
  "source": "// SPDX-License-Identifier: MIT\r\npragma solidity ^0.8.6;\r\n\r\nimport \"@openzeppelin/contracts/token/ERC721/extensions/ERC721URIStorage.sol\";\r\nimport \"@openzeppelin/contracts/access/Ownable.sol\";\r\nimport \"@openzeppelin/contracts/utils/math/SafeMath.sol\";\r\n\r\ncontract Collectible is ERC721URIStorage, Ownable {\r\n    using SafeMath for uint256;\r\n\r\n    // Mapping to check if the metadata has been minted\r\n    mapping (string => bool) public hasBeenMinted;\r\n    mapping (uint256 => Item) public tokenIdToItem;\r\n\r\n    struct Item {\r\n        address owner;\r\n        address creator;\r\n        uint256 royalty;\r\n    }\r\n\r\n    Item[] public items;\r\n\r\n    /**\r\n     * @dev Initializes the contract by setting a `name` and a `symbol` to the token collection inheriting from the ERC721 smart contract.\r\n     */\r\n    constructor() ERC721(\"NFTCollectible\", \"NFTC\") {}\r\n\r\n    /**\r\n     * @dev create a collectible with a `metadata` for the msg.sender\r\n     *\r\n     * Requirements:\r\n     * - `metadata` has not been minted before\r\n     * - `royalty` must be between 0% and 40%\r\n     *\r\n     * Emits a {Transfer} event - comes from the ERC-721 smart contract.\r\n     */\r\n    function createCollectible(\r\n        string memory metadata,\r\n        uint256 royalty\r\n    ) public returns (uint256) {\r\n        require(\r\n            !hasBeenMinted[metadata],\r\n            \"This metadata has already been used to mint an NFT!\"\r\n        );\r\n        require(\r\n            royalty >= 0 && royalty <= 40, \"Royalties must be between 0% and 40%\"\r\n        );\r\n\r\n        uint256 newItemId = items.length;\r\n\r\n        items.push(\r\n            Item(\r\n                msg.sender,\r\n                msg.sender,\r\n                royalty\r\n            )\r\n        );\r\n\r\n        _safeMint(msg.sender, newItemId);\r\n        _setTokenURI(newItemId, metadata);\r\n\r\n        return newItemId;\r\n    }\r\n}",
  "sourcePath": "C:\\Users\\Metodi\\Desktop\\ProjectsDapp\\avax-tutorial-nft\\contracts\\Collectible.sol",
  "compiler": {
    "name": "solc",
    "version": "0.8.6+commit.11564f7e.Emscripten.clang"
  },
  "schemaVersion": "3.4.2",
  "updatedAt": "2021-08-03T00:19:17.420Z",
  "devdoc": {
    "kind": "dev",
    "methods": {
      "approve(address,uint256)": {
        "details": "See {IERC721-approve}."
      },
      "balanceOf(address)": {
        "details": "See {IERC721-balanceOf}."
      },
      "constructor": {
        "details": "Initializes the contract by setting a `name` and a `symbol` to the token collection inheriting from the ERC721 smart contract."
      },
      "createCollectible(string,uint256)": {
        "details": "create a collectible with a `metadata` for the msg.sender Requirements: - `metadata` has not been minted before - `royalty` must be between 0% and 40% Emits a {Transfer} event - comes from the ERC-721 smart contract."
      },
      "getApproved(uint256)": {
        "details": "See {IERC721-getApproved}."
      },
      "isApprovedForAll(address,address)": {
        "details": "See {IERC721-isApprovedForAll}."
      },
      "name()": {
        "details": "See {IERC721Metadata-name}."
      },
      "owner()": {
        "details": "Returns the address of the current owner."
      },
      "ownerOf(uint256)": {
        "details": "See {IERC721-ownerOf}."
      },
      "renounceOwnership()": {
        "details": "Leaves the contract without owner. It will not be possible to call `onlyOwner` functions anymore. Can only be called by the current owner. NOTE: Renouncing ownership will leave the contract without an owner, thereby removing any functionality that is only available to the owner."
      },
      "safeTransferFrom(address,address,uint256)": {
        "details": "See {IERC721-safeTransferFrom}."
      },
      "safeTransferFrom(address,address,uint256,bytes)": {
        "details": "See {IERC721-safeTransferFrom}."
      },
      "setApprovalForAll(address,bool)": {
        "details": "See {IERC721-setApprovalForAll}."
      },
      "supportsInterface(bytes4)": {
        "details": "See {IERC165-supportsInterface}."
      },
      "symbol()": {
        "details": "See {IERC721Metadata-symbol}."
      },
      "tokenURI(uint256)": {
        "details": "See {IERC721Metadata-tokenURI}."
      },
      "transferFrom(address,address,uint256)": {
        "details": "See {IERC721-transferFrom}."
      },
      "transferOwnership(address)": {
        "details": "Transfers ownership of the contract to a new account (`newOwner`). Can only be called by the current owner."
      }
    },
    "version": 1
  },
  "userdoc": {
    "kind": "user",
    "methods": {},
    "version": 1
  }
}