{
  "contractName": "Marketplace",
  "abi": [
    {
      "anonymous": false,
      "inputs": [
        {
          "indexed": true,
          "internalType": "address",
          "name": "owner",
          "type": "address"
        },
        {
          "indexed": true,
          "internalType": "address",
          "name": "approved",
          "type": "address"
        },
        {
          "indexed": true,
          "internalType": "uint256",
          "name": "tokenId",
          "type": "uint256"
        }
      ],
      "name": "Approval",
      "type": "event"
    },
    {
      "anonymous": false,
      "inputs": [
        {
          "indexed": true,
          "internalType": "address",
          "name": "owner",
          "type": "address"
        },
        {
          "indexed": true,
          "internalType": "address",
          "name": "operator",
          "type": "address"
        },
        {
          "indexed": false,
          "internalType": "bool",
          "name": "approved",
          "type": "bool"
        }
      ],
      "name": "ApprovalForAll",
      "type": "event"
    },
    {
      "anonymous": false,
      "inputs": [
        {
          "indexed": false,
          "internalType": "uint256",
          "name": "tokenId",
          "type": "uint256"
        },
        {
          "indexed": false,
          "internalType": "uint256",
          "name": "price",
          "type": "uint256"
        },
        {
          "indexed": false,
          "internalType": "address",
          "name": "buyer",
          "type": "address"
        }
      ],
      "name": "ItemBought",
      "type": "event"
    },
    {
      "anonymous": false,
      "inputs": [
        {
          "indexed": false,
          "internalType": "uint256",
          "name": "tokenId",
          "type": "uint256"
        },
        {
          "indexed": false,
          "internalType": "uint256",
          "name": "price",
          "type": "uint256"
        },
        {
          "indexed": false,
          "internalType": "address",
          "name": "seller",
          "type": "address"
        }
      ],
      "name": "ItemListed",
      "type": "event"
    },
    {
      "anonymous": false,
      "inputs": [
        {
          "indexed": false,
          "internalType": "uint256",
          "name": "tokenId",
          "type": "uint256"
        },
        {
          "indexed": false,
          "internalType": "uint256",
          "name": "price",
          "type": "uint256"
        },
        {
          "indexed": false,
          "internalType": "address",
          "name": "seller",
          "type": "address"
        }
      ],
      "name": "ListingCancelled",
      "type": "event"
    },
    {
      "anonymous": false,
      "inputs": [
        {
          "indexed": true,
          "internalType": "address",
          "name": "previousOwner",
          "type": "address"
        },
        {
          "indexed": true,
          "internalType": "address",
          "name": "newOwner",
          "type": "address"
        }
      ],
      "name": "OwnershipTransferred",
      "type": "event"
    },
    {
      "anonymous": false,
      "inputs": [
        {
          "indexed": true,
          "internalType": "address",
          "name": "from",
          "type": "address"
        },
        {
          "indexed": true,
          "internalType": "address",
          "name": "to",
          "type": "address"
        },
        {
          "indexed": true,
          "internalType": "uint256",
          "name": "tokenId",
          "type": "uint256"
        }
      ],
      "name": "Transfer",
      "type": "event"
    },
    {
      "inputs": [
        {
          "internalType": "address",
          "name": "to",
          "type": "address"
        },
        {
          "internalType": "uint256",
          "name": "tokenId",
          "type": "uint256"
        }
      ],
      "name": "approve",
      "outputs": [],
      "stateMutability": "nonpayable",
      "type": "function"
    },
    {
      "inputs": [
        {
          "internalType": "address",
          "name": "owner",
          "type": "address"
        }
      ],
      "name": "balanceOf",
      "outputs": [
        {
          "internalType": "uint256",
          "name": "",
          "type": "uint256"
        }
      ],
      "stateMutability": "view",
      "type": "function",
      "constant": true
    },
    {
      "inputs": [
        {
          "internalType": "uint256",
          "name": "",
          "type": "uint256"
        }
      ],
      "name": "claimableByAccount",
      "outputs": [
        {
          "internalType": "address",
          "name": "",
          "type": "address"
        }
      ],
      "stateMutability": "view",
      "type": "function",
      "constant": true
    },
    {
      "inputs": [
        {
          "internalType": "string",
          "name": "metadata",
          "type": "string"
        },
        {
          "internalType": "uint256",
          "name": "royalty",
          "type": "uint256"
        }
      ],
      "name": "createCollectible",
      "outputs": [
        {
          "internalType": "uint256",
          "name": "",
          "type": "uint256"
        }
      ],
      "stateMutability": "nonpayable",
      "type": "function"
    },
    {
      "inputs": [
        {
          "internalType": "uint256",
          "name": "tokenId",
          "type": "uint256"
        }
      ],
      "name": "getApproved",
      "outputs": [
        {
          "internalType": "address",
          "name": "",
          "type": "address"
        }
      ],
      "stateMutability": "view",
      "type": "function",
      "constant": true
    },
    {
      "inputs": [
        {
          "internalType": "uint256",
          "name": "",
          "type": "uint256"
        }
      ],
      "name": "hasBeenListed",
      "outputs": [
        {
          "internalType": "bool",
          "name": "",
          "type": "bool"
        }
      ],
      "stateMutability": "view",
      "type": "function",
      "constant": true
    },
    {
      "inputs": [
        {
          "internalType": "string",
          "name": "",
          "type": "string"
        }
      ],
      "name": "hasBeenMinted",
      "outputs": [
        {
          "internalType": "bool",
          "name": "",
          "type": "bool"
        }
      ],
      "stateMutability": "view",
      "type": "function",
      "constant": true
    },
    {
      "inputs": [
        {
          "internalType": "address",
          "name": "owner",
          "type": "address"
        },
        {
          "internalType": "address",
          "name": "operator",
          "type": "address"
        }
      ],
      "name": "isApprovedForAll",
      "outputs": [
        {
          "internalType": "bool",
          "name": "",
          "type": "bool"
        }
      ],
      "stateMutability": "view",
      "type": "function",
      "constant": true
    },
    {
      "inputs": [
        {
          "internalType": "uint256",
          "name": "",
          "type": "uint256"
        }
      ],
      "name": "items",
      "outputs": [
        {
          "internalType": "address",
          "name": "owner",
          "type": "address"
        },
        {
          "internalType": "address",
          "name": "creator",
          "type": "address"
        },
        {
          "internalType": "uint256",
          "name": "royalty",
          "type": "uint256"
        }
      ],
      "stateMutability": "view",
      "type": "function",
      "constant": true
    },
    {
      "inputs": [],
      "name": "name",
      "outputs": [
        {
          "internalType": "string",
          "name": "",
          "type": "string"
        }
      ],
      "stateMutability": "view",
      "type": "function",
      "constant": true
    },
    {
      "inputs": [],
      "name": "owner",
      "outputs": [
        {
          "internalType": "address",
          "name": "",
          "type": "address"
        }
      ],
      "stateMutability": "view",
      "type": "function",
      "constant": true
    },
    {
      "inputs": [
        {
          "internalType": "uint256",
          "name": "tokenId",
          "type": "uint256"
        }
      ],
      "name": "ownerOf",
      "outputs": [
        {
          "internalType": "address",
          "name": "",
          "type": "address"
        }
      ],
      "stateMutability": "view",
      "type": "function",
      "constant": true
    },
    {
      "inputs": [],
      "name": "renounceOwnership",
      "outputs": [],
      "stateMutability": "nonpayable",
      "type": "function"
    },
    {
      "inputs": [
        {
          "internalType": "address",
          "name": "from",
          "type": "address"
        },
        {
          "internalType": "address",
          "name": "to",
          "type": "address"
        },
        {
          "internalType": "uint256",
          "name": "tokenId",
          "type": "uint256"
        }
      ],
      "name": "safeTransferFrom",
      "outputs": [],
      "stateMutability": "nonpayable",
      "type": "function"
    },
    {
      "inputs": [
        {
          "internalType": "address",
          "name": "from",
          "type": "address"
        },
        {
          "internalType": "address",
          "name": "to",
          "type": "address"
        },
        {
          "internalType": "uint256",
          "name": "tokenId",
          "type": "uint256"
        },
        {
          "internalType": "bytes",
          "name": "_data",
          "type": "bytes"
        }
      ],
      "name": "safeTransferFrom",
      "outputs": [],
      "stateMutability": "nonpayable",
      "type": "function"
    },
    {
      "inputs": [
        {
          "internalType": "address",
          "name": "operator",
          "type": "address"
        },
        {
          "internalType": "bool",
          "name": "approved",
          "type": "bool"
        }
      ],
      "name": "setApprovalForAll",
      "outputs": [],
      "stateMutability": "nonpayable",
      "type": "function"
    },
    {
      "inputs": [
        {
          "internalType": "bytes4",
          "name": "interfaceId",
          "type": "bytes4"
        }
      ],
      "name": "supportsInterface",
      "outputs": [
        {
          "internalType": "bool",
          "name": "",
          "type": "bool"
        }
      ],
      "stateMutability": "view",
      "type": "function",
      "constant": true
    },
    {
      "inputs": [],
      "name": "symbol",
      "outputs": [
        {
          "internalType": "string",
          "name": "",
          "type": "string"
        }
      ],
      "stateMutability": "view",
      "type": "function",
      "constant": true
    },
    {
      "inputs": [
        {
          "internalType": "uint256",
          "name": "",
          "type": "uint256"
        }
      ],
      "name": "tokenIdToItem",
      "outputs": [
        {
          "internalType": "address",
          "name": "owner",
          "type": "address"
        },
        {
          "internalType": "address",
          "name": "creator",
          "type": "address"
        },
        {
          "internalType": "uint256",
          "name": "royalty",
          "type": "uint256"
        }
      ],
      "stateMutability": "view",
      "type": "function",
      "constant": true
    },
    {
      "inputs": [
        {
          "internalType": "uint256",
          "name": "",
          "type": "uint256"
        }
      ],
      "name": "tokenIdToListing",
      "outputs": [
        {
          "internalType": "uint256",
          "name": "tokenId",
          "type": "uint256"
        },
        {
          "internalType": "uint256",
          "name": "price",
          "type": "uint256"
        },
        {
          "internalType": "address",
          "name": "owner",
          "type": "address"
        }
      ],
      "stateMutability": "view",
      "type": "function",
      "constant": true
    },
    {
      "inputs": [
        {
          "internalType": "uint256",
          "name": "tokenId",
          "type": "uint256"
        }
      ],
      "name": "tokenURI",
      "outputs": [
        {
          "internalType": "string",
          "name": "",
          "type": "string"
        }
      ],
      "stateMutability": "view",
      "type": "function",
      "constant": true
    },
    {
      "inputs": [
        {
          "internalType": "address",
          "name": "from",
          "type": "address"
        },
        {
          "internalType": "address",
          "name": "to",
          "type": "address"
        },
        {
          "internalType": "uint256",
          "name": "tokenId",
          "type": "uint256"
        }
      ],
      "name": "transferFrom",
      "outputs": [],
      "stateMutability": "nonpayable",
      "type": "function"
    },
    {
      "inputs": [
        {
          "internalType": "address",
          "name": "newOwner",
          "type": "address"
        }
      ],
      "name": "transferOwnership",
      "outputs": [],
      "stateMutability": "nonpayable",
      "type": "function"
    },
    {
      "inputs": [
        {
          "internalType": "uint256",
          "name": "tokenId",
          "type": "uint256"
        },
        {
          "internalType": "uint256",
          "name": "price",
          "type": "uint256"
        }
      ],
      "name": "listItem",
      "outputs": [],
      "stateMutability": "nonpayable",
      "type": "function"
    },
    {
      "inputs": [
        {
          "internalType": "uint256",
          "name": "tokenId",
          "type": "uint256"
        }
      ],
      "name": "cancelListing",
      "outputs": [],
      "stateMutability": "nonpayable",
      "type": "function"
    },
    {
      "inputs": [
        {
          "internalType": "uint256",
          "name": "tokenId",
          "type": "uint256"
        }
      ],
      "name": "buyItem",
      "outputs": [],
      "stateMutability": "payable",
      "type": "function",
      "payable": true
    }
  ],
  "bytecode": "0x60806040523480156200001157600080fd5b506040518060400160405280600e81526020017f4e4654436f6c6c65637469626c650000000000000000000000000000000000008152506040518060400160405280600481526020017f4e46544300000000000000000000000000000000000000000000000000000000815250816000908051906020019062000096929190620001a6565b508060019080519060200190620000af929190620001a6565b505050620000d2620000c6620000d860201b60201c565b620000e060201b60201c565b620002bb565b600033905090565b6000600760009054906101000a900473ffffffffffffffffffffffffffffffffffffffff16905081600760006101000a81548173ffffffffffffffffffffffffffffffffffffffff021916908373ffffffffffffffffffffffffffffffffffffffff1602179055508173ffffffffffffffffffffffffffffffffffffffff168173ffffffffffffffffffffffffffffffffffffffff167f8be0079c531659141344cd1fd0a4f28419497f9722a3daafe3b4186f6b6457e060405160405180910390a35050565b828054620001b49062000256565b90600052602060002090601f016020900481019282620001d8576000855562000224565b82601f10620001f357805160ff191683800117855562000224565b8280016001018555821562000224579182015b828111156200022357825182559160200191906001019062000206565b5b50905062000233919062000237565b5090565b5b808211156200025257600081600090555060010162000238565b5090565b600060028204905060018216806200026f57607f821691505b602082108114156200028657620002856200028c565b5b50919050565b7f4e487b7100000000000000000000000000000000000000000000000000000000600052602260045260246000fd5b61445f80620002cb6000396000f3fe6080604052600436106101815760003560e01c8063883efa67116100d1578063ba6dc0d21161008a578063e7fb74c711610064578063e7fb74c7146105e0578063e985e9c5146105fc578063f2fde38b14610639578063ffde808d1461066257610181565b8063ba6dc0d214610527578063bfb231d214610564578063c87b56dd146105a357610181565b8063883efa67146104195780638da5cb5b1461044257806395d89b411461046d578063a22cb46514610498578063b10d7824146104c1578063b88d4fde146104fe57610181565b806323b872dd1161013e5780635d36a364116101185780635d36a364146103495780636352211e1461038857806370a08231146103c5578063715018a61461040257610181565b806323b872dd146102ce578063305a67a8146102f757806342842e0e1461032057610181565b806301ffc9a71461018657806306fdde03146101c3578063081812fc146101ee578063095ea7b31461022b5780631f061a29146102545780632337e85314610291575b600080fd5b34801561019257600080fd5b506101ad60048036038101906101a89190612d4b565b6106a1565b6040516101ba9190613426565b60405180910390f35b3480156101cf57600080fd5b506101d8610783565b6040516101e59190613441565b60405180910390f35b3480156101fa57600080fd5b5061021560048036038101906102109190612e4a565b610815565b6040516102229190613388565b60405180910390f35b34801561023757600080fd5b50610252600480360381019061024d9190612d0b565b61089a565b005b34801561026057600080fd5b5061027b60048036038101906102769190612dee565b6109b2565b60405161028891906137a3565b60405180910390f35b34801561029d57600080fd5b506102b860048036038101906102b39190612e4a565b610ba5565b6040516102c59190613426565b60405180910390f35b3480156102da57600080fd5b506102f560048036038101906102f09190612bf5565b610bc5565b005b34801561030357600080fd5b5061031e60048036038101906103199190612e4a565b610c25565b005b34801561032c57600080fd5b5061034760048036038101906103429190612bf5565b610ddc565b005b34801561035557600080fd5b50610370600480360381019061036b9190612e4a565b610dfc565b60405161037f939291906133a3565b60405180910390f35b34801561039457600080fd5b506103af60048036038101906103aa9190612e4a565b610e66565b6040516103bc9190613388565b60405180910390f35b3480156103d157600080fd5b506103ec60048036038101906103e79190612b88565b610f18565b6040516103f991906137a3565b60405180910390f35b34801561040e57600080fd5b50610417610fd0565b005b34801561042557600080fd5b50610440600480360381019061043b9190612e77565b611058565b005b34801561044e57600080fd5b5061045761129b565b6040516104649190613388565b60405180910390f35b34801561047957600080fd5b506104826112c5565b60405161048f9190613441565b60405180910390f35b3480156104a457600080fd5b506104bf60048036038101906104ba9190612ccb565b611357565b005b3480156104cd57600080fd5b506104e860048036038101906104e39190612da5565b6114d8565b6040516104f59190613426565b60405180910390f35b34801561050a57600080fd5b5061052560048036038101906105209190612c48565b61150e565b005b34801561053357600080fd5b5061054e60048036038101906105499190612e4a565b611570565b60405161055b9190613388565b60405180910390f35b34801561057057600080fd5b5061058b60048036038101906105869190612e4a565b6115a3565b60405161059a939291906133a3565b60405180910390f35b3480156105af57600080fd5b506105ca60048036038101906105c59190612e4a565b61161d565b6040516105d79190613441565b60405180910390f35b6105fa60048036038101906105f59190612e4a565b61176f565b005b34801561060857600080fd5b50610623600480360381019061061e9190612bb5565b611b08565b6040516106309190613426565b60405180910390f35b34801561064557600080fd5b50610660600480360381019061065b9190612b88565b611b9c565b005b34801561066e57600080fd5b5061068960048036038101906106849190612e4a565b611c94565b604051610698939291906137be565b60405180910390f35b60007f80ac58cd000000000000000000000000000000000000000000000000000000007bffffffffffffffffffffffffffffffffffffffffffffffffffffffff1916827bffffffffffffffffffffffffffffffffffffffffffffffffffffffff1916148061076c57507f5b5e139f000000000000000000000000000000000000000000000000000000007bffffffffffffffffffffffffffffffffffffffffffffffffffffffff1916827bffffffffffffffffffffffffffffffffffffffffffffffffffffffff1916145b8061077c575061077b82611cde565b5b9050919050565b60606000805461079290613a95565b80601f01602080910402602001604051908101604052809291908181526020018280546107be90613a95565b801561080b5780601f106107e05761010080835404028352916020019161080b565b820191906000526020600020905b8154815290600101906020018083116107ee57829003601f168201915b5050505050905090565b600061082082611d48565b61085f576040517f08c379a000000000000000000000000000000000000000000000000000000000815260040161085690613663565b60405180910390fd5b6004600083815260200190815260200160002060009054906101000a900473ffffffffffffffffffffffffffffffffffffffff169050919050565b60006108a582610e66565b90508073ffffffffffffffffffffffffffffffffffffffff168373ffffffffffffffffffffffffffffffffffffffff161415610916576040517f08c379a000000000000000000000000000000000000000000000000000000000815260040161090d90613703565b60405180910390fd5b8073ffffffffffffffffffffffffffffffffffffffff16610935611db4565b73ffffffffffffffffffffffffffffffffffffffff16148061096457506109638161095e611db4565b611b08565b5b6109a3576040517f08c379a000000000000000000000000000000000000000000000000000000000815260040161099a90613563565b60405180910390fd5b6109ad8383611dbc565b505050565b60006008836040516109c49190613338565b908152602001604051809103902060009054906101000a900460ff1615610a20576040517f08c379a0000000000000000000000000000000000000000000000000000000008152600401610a1790613543565b60405180910390fd5b60008210158015610a32575060288211155b610a71576040517f08c379a0000000000000000000000000000000000000000000000000000000008152600401610a68906136a3565b60405180910390fd5b6000600a805490509050600a60405180606001604052803373ffffffffffffffffffffffffffffffffffffffff1681526020013373ffffffffffffffffffffffffffffffffffffffff16815260200185815250908060018154018082558091505060019003906000526020600020906003020160009091909190915060008201518160000160006101000a81548173ffffffffffffffffffffffffffffffffffffffff021916908373ffffffffffffffffffffffffffffffffffffffff16021790555060208201518160010160006101000a81548173ffffffffffffffffffffffffffffffffffffffff021916908373ffffffffffffffffffffffffffffffffffffffff160217905550604082015181600201555050610b913382611e75565b610b9b8185611e93565b8091505092915050565b600c6020528060005260406000206000915054906101000a900460ff1681565b610bd6610bd0611db4565b82611f07565b610c15576040517f08c379a0000000000000000000000000000000000000000000000000000000008152600401610c0c90613783565b60405180910390fd5b610c20838383611fe5565b505050565b80600d600082815260200190815260200160002060009054906101000a900473ffffffffffffffffffffffffffffffffffffffff1673ffffffffffffffffffffffffffffffffffffffff163373ffffffffffffffffffffffffffffffffffffffff1614610cc7576040517f08c379a0000000000000000000000000000000000000000000000000000000008152600401610cbe90613723565b60405180910390fd5b610cd2303384611fe5565b6000600b6000848152602001908152602001600020600101549050600d600084815260200190815260200160002060006101000a81549073ffffffffffffffffffffffffffffffffffffffff0219169055600b600084815260200190815260200160002060008082016000905560018201600090556002820160006101000a81549073ffffffffffffffffffffffffffffffffffffffff021916905550506000600c600085815260200190815260200160002060006101000a81548160ff0219169083151502179055507f5f0be1e06429123bb18a91b02cae2672c631c3d0eef488ee77e1e9870a6e2cb4838233604051610dcf939291906137be565b60405180910390a1505050565b610df78383836040518060200160405280600081525061150e565b505050565b60096020528060005260406000206000915090508060000160009054906101000a900473ffffffffffffffffffffffffffffffffffffffff16908060010160009054906101000a900473ffffffffffffffffffffffffffffffffffffffff16908060020154905083565b6000806002600084815260200190815260200160002060009054906101000a900473ffffffffffffffffffffffffffffffffffffffff169050600073ffffffffffffffffffffffffffffffffffffffff168173ffffffffffffffffffffffffffffffffffffffff161415610f0f576040517f08c379a0000000000000000000000000000000000000000000000000000000008152600401610f06906135a3565b60405180910390fd5b80915050919050565b60008073ffffffffffffffffffffffffffffffffffffffff168273ffffffffffffffffffffffffffffffffffffffff161415610f89576040517f08c379a0000000000000000000000000000000000000000000000000000000008152600401610f8090613583565b60405180910390fd5b600360008373ffffffffffffffffffffffffffffffffffffffff1673ffffffffffffffffffffffffffffffffffffffff168152602001908152602001600020549050919050565b610fd8611db4565b73ffffffffffffffffffffffffffffffffffffffff16610ff661129b565b73ffffffffffffffffffffffffffffffffffffffff161461104c576040517f08c379a000000000000000000000000000000000000000000000000000000000815260040161104390613683565b60405180910390fd5b6110566000612241565b565b8161106281610e66565b73ffffffffffffffffffffffffffffffffffffffff163373ffffffffffffffffffffffffffffffffffffffff16146110cf576040517f08c379a00000000000000000000000000000000000000000000000000000000081526004016110c690613623565b60405180910390fd5b600c600084815260200190815260200160002060009054906101000a900460ff1615611130576040517f08c379a000000000000000000000000000000000000000000000000000000000815260040161112790613763565b60405180910390fd5b61113b333085611fe5565b33600d600085815260200190815260200160002060006101000a81548173ffffffffffffffffffffffffffffffffffffffff021916908373ffffffffffffffffffffffffffffffffffffffff16021790555060405180606001604052808481526020018381526020013373ffffffffffffffffffffffffffffffffffffffff16815250600b6000858152602001908152602001600020600082015181600001556020820151816001015560408201518160020160006101000a81548173ffffffffffffffffffffffffffffffffffffffff021916908373ffffffffffffffffffffffffffffffffffffffff1602179055509050506001600c600085815260200190815260200160002060006101000a81548160ff0219169083151502179055507f092007ff2210a28905dcb35e8410b931493756ecaa2dc88307373c190349b04583833360405161128e939291906137be565b60405180910390a1505050565b6000600760009054906101000a900473ffffffffffffffffffffffffffffffffffffffff16905090565b6060600180546112d490613a95565b80601f016020809104026020016040519081016040528092919081815260200182805461130090613a95565b801561134d5780601f106113225761010080835404028352916020019161134d565b820191906000526020600020905b81548152906001019060200180831161133057829003601f168201915b5050505050905090565b61135f611db4565b73ffffffffffffffffffffffffffffffffffffffff168273ffffffffffffffffffffffffffffffffffffffff1614156113cd576040517f08c379a00000000000000000000000000000000000000000000000000000000081526004016113c4906134e3565b60405180910390fd5b80600560006113da611db4565b73ffffffffffffffffffffffffffffffffffffffff1673ffffffffffffffffffffffffffffffffffffffff16815260200190815260200160002060008473ffffffffffffffffffffffffffffffffffffffff1673ffffffffffffffffffffffffffffffffffffffff16815260200190815260200160002060006101000a81548160ff0219169083151502179055508173ffffffffffffffffffffffffffffffffffffffff16611487611db4565b73ffffffffffffffffffffffffffffffffffffffff167f17307eab39ab6107e8899845ad3d59bd9653f200f220920489ca2b5937696c31836040516114cc9190613426565b60405180910390a35050565b6008818051602081018201805184825260208301602085012081835280955050505050506000915054906101000a900460ff1681565b61151f611519611db4565b83611f07565b61155e576040517f08c379a000000000000000000000000000000000000000000000000000000000815260040161155590613783565b60405180910390fd5b61156a84848484612307565b50505050565b600d6020528060005260406000206000915054906101000a900473ffffffffffffffffffffffffffffffffffffffff1681565b600a81815481106115b357600080fd5b90600052602060002090600302016000915090508060000160009054906101000a900473ffffffffffffffffffffffffffffffffffffffff16908060010160009054906101000a900473ffffffffffffffffffffffffffffffffffffffff16908060020154905083565b606061162882611d48565b611667576040517f08c379a000000000000000000000000000000000000000000000000000000000815260040161165e90613643565b60405180910390fd5b600060066000848152602001908152602001600020805461168790613a95565b80601f01602080910402602001604051908101604052809291908181526020018280546116b390613a95565b80156117005780601f106116d557610100808354040283529160200191611700565b820191906000526020600020905b8154815290600101906020018083116116e357829003601f168201915b505050505090506000611711612363565b905060008151141561172757819250505061176a565b60008251111561175c57808260405160200161174492919061334f565b6040516020818303038152906040529250505061176a565b6117658461237a565b925050505b919050565b600c600082815260200190815260200160002060009054906101000a900460ff166117cf576040517f08c379a00000000000000000000000000000000000000000000000000000000081526004016117c690613743565b60405180910390fd5b34600b60008381526020019081526020016000206001015414611827576040517f08c379a000000000000000000000000000000000000000000000000000000000815260040161181e90613523565b60405180910390fd5b6000611865606461185734600960008781526020019081526020016000206002015461242190919063ffffffff16565b61243790919063ffffffff16565b9050600061187c823461244d90919063ffffffff16565b905060006009600085815260200190815260200160002060010160009054906101000a900473ffffffffffffffffffffffffffffffffffffffff1673ffffffffffffffffffffffffffffffffffffffff16836040516118da90613373565b60006040518083038185875af1925050503d8060008114611917576040519150601f19603f3d011682016040523d82523d6000602084013e61191c565b606091505b5050905080611960576040517f08c379a0000000000000000000000000000000000000000000000000000000008152600401611957906135e3565b60405180910390fd5b60006009600086815260200190815260200160002060000160009054906101000a900473ffffffffffffffffffffffffffffffffffffffff1673ffffffffffffffffffffffffffffffffffffffff16836040516119bc90613373565b60006040518083038185875af1925050503d80600081146119f9576040519150601f19603f3d011682016040523d82523d6000602084013e6119fe565b606091505b5050905080611a42576040517f08c379a0000000000000000000000000000000000000000000000000000000008152600401611a39906135e3565b60405180910390fd5b611a4d303387611fe5565b600b600086815260200190815260200160002060008082016000905560018201600090556002820160006101000a81549073ffffffffffffffffffffffffffffffffffffffff021916905550506000600c600087815260200190815260200160002060006101000a81548160ff0219169083151502179055507f39cd056bcfc4b6e195eb99b09c74b00815a367bca4e86f70ecf2e0140401bd5e853433604051611af9939291906137be565b60405180910390a15050505050565b6000600560008473ffffffffffffffffffffffffffffffffffffffff1673ffffffffffffffffffffffffffffffffffffffff16815260200190815260200160002060008373ffffffffffffffffffffffffffffffffffffffff1673ffffffffffffffffffffffffffffffffffffffff16815260200190815260200160002060009054906101000a900460ff16905092915050565b611ba4611db4565b73ffffffffffffffffffffffffffffffffffffffff16611bc261129b565b73ffffffffffffffffffffffffffffffffffffffff1614611c18576040517f08c379a0000000000000000000000000000000000000000000000000000000008152600401611c0f90613683565b60405180910390fd5b600073ffffffffffffffffffffffffffffffffffffffff168173ffffffffffffffffffffffffffffffffffffffff161415611c88576040517f08c379a0000000000000000000000000000000000000000000000000000000008152600401611c7f90613483565b60405180910390fd5b611c9181612241565b50565b600b6020528060005260406000206000915090508060000154908060010154908060020160009054906101000a900473ffffffffffffffffffffffffffffffffffffffff16905083565b60007f01ffc9a7000000000000000000000000000000000000000000000000000000007bffffffffffffffffffffffffffffffffffffffffffffffffffffffff1916827bffffffffffffffffffffffffffffffffffffffffffffffffffffffff1916149050919050565b60008073ffffffffffffffffffffffffffffffffffffffff166002600084815260200190815260200160002060009054906101000a900473ffffffffffffffffffffffffffffffffffffffff1673ffffffffffffffffffffffffffffffffffffffff1614159050919050565b600033905090565b816004600083815260200190815260200160002060006101000a81548173ffffffffffffffffffffffffffffffffffffffff021916908373ffffffffffffffffffffffffffffffffffffffff160217905550808273ffffffffffffffffffffffffffffffffffffffff16611e2f83610e66565b73ffffffffffffffffffffffffffffffffffffffff167f8c5be1e5ebec7d5bd14f71427d1e84f3dd0314c0f7b2291e5b200ac8c7c3b92560405160405180910390a45050565b611e8f828260405180602001604052806000815250612463565b5050565b611e9c82611d48565b611edb576040517f08c379a0000000000000000000000000000000000000000000000000000000008152600401611ed2906135c3565b60405180910390fd5b80600660008481526020019081526020016000209080519060200190611f0292919061299c565b505050565b6000611f1282611d48565b611f51576040517f08c379a0000000000000000000000000000000000000000000000000000000008152600401611f4890613503565b60405180910390fd5b6000611f5c83610e66565b90508073ffffffffffffffffffffffffffffffffffffffff168473ffffffffffffffffffffffffffffffffffffffff161480611fcb57508373ffffffffffffffffffffffffffffffffffffffff16611fb384610815565b73ffffffffffffffffffffffffffffffffffffffff16145b80611fdc5750611fdb8185611b08565b5b91505092915050565b8273ffffffffffffffffffffffffffffffffffffffff1661200582610e66565b73ffffffffffffffffffffffffffffffffffffffff161461205b576040517f08c379a0000000000000000000000000000000000000000000000000000000008152600401612052906136c3565b60405180910390fd5b600073ffffffffffffffffffffffffffffffffffffffff168273ffffffffffffffffffffffffffffffffffffffff1614156120cb576040517f08c379a00000000000000000000000000000000000000000000000000000000081526004016120c2906134c3565b60405180910390fd5b6120d68383836124be565b6120e1600082611dbc565b6001600360008573ffffffffffffffffffffffffffffffffffffffff1673ffffffffffffffffffffffffffffffffffffffff168152602001908152602001600020600082825461213191906139ab565b925050819055506001600360008473ffffffffffffffffffffffffffffffffffffffff1673ffffffffffffffffffffffffffffffffffffffff168152602001908152602001600020600082825461218891906138ca565b92505081905550816002600083815260200190815260200160002060006101000a81548173ffffffffffffffffffffffffffffffffffffffff021916908373ffffffffffffffffffffffffffffffffffffffff160217905550808273ffffffffffffffffffffffffffffffffffffffff168473ffffffffffffffffffffffffffffffffffffffff167fddf252ad1be2c89b69c2b068fc378daa952ba7f163c4a11628f55a4df523b3ef60405160405180910390a4505050565b6000600760009054906101000a900473ffffffffffffffffffffffffffffffffffffffff16905081600760006101000a81548173ffffffffffffffffffffffffffffffffffffffff021916908373ffffffffffffffffffffffffffffffffffffffff1602179055508173ffffffffffffffffffffffffffffffffffffffff168173ffffffffffffffffffffffffffffffffffffffff167f8be0079c531659141344cd1fd0a4f28419497f9722a3daafe3b4186f6b6457e060405160405180910390a35050565b612312848484611fe5565b61231e848484846124c3565b61235d576040517f08c379a000000000000000000000000000000000000000000000000000000000815260040161235490613463565b60405180910390fd5b50505050565b606060405180602001604052806000815250905090565b606061238582611d48565b6123c4576040517f08c379a00000000000000000000000000000000000000000000000000000000081526004016123bb906136e3565b60405180910390fd5b60006123ce612363565b905060008151116123ee5760405180602001604052806000815250612419565b806123f88461265a565b60405160200161240992919061334f565b6040516020818303038152906040525b915050919050565b6000818361242f9190613951565b905092915050565b600081836124459190613920565b905092915050565b6000818361245b91906139ab565b905092915050565b61246d83836127bb565b61247a60008484846124c3565b6124b9576040517f08c379a00000000000000000000000000000000000000000000000000000000081526004016124b090613463565b60405180910390fd5b505050565b505050565b60006124e48473ffffffffffffffffffffffffffffffffffffffff16612989565b1561264d578373ffffffffffffffffffffffffffffffffffffffff1663150b7a0261250d611db4565b8786866040518563ffffffff1660e01b815260040161252f94939291906133da565b602060405180830381600087803b15801561254957600080fd5b505af192505050801561257a57506040513d601f19601f820116820180604052508101906125779190612d78565b60015b6125fd573d80600081146125aa576040519150601f19603f3d011682016040523d82523d6000602084013e6125af565b606091505b506000815114156125f5576040517f08c379a00000000000000000000000000000000000000000000000000000000081526004016125ec90613463565b60405180910390fd5b805181602001fd5b63150b7a0260e01b7bffffffffffffffffffffffffffffffffffffffffffffffffffffffff1916817bffffffffffffffffffffffffffffffffffffffffffffffffffffffff191614915050612652565b600190505b949350505050565b606060008214156126a2576040518060400160405280600181526020017f300000000000000000000000000000000000000000000000000000000000000081525090506127b6565b600082905060005b600082146126d45780806126bd90613af8565b915050600a826126cd9190613920565b91506126aa565b60008167ffffffffffffffff8111156126f0576126ef613c2e565b5b6040519080825280601f01601f1916602001820160405280156127225781602001600182028036833780820191505090505b5090505b600085146127af5760018261273b91906139ab565b9150600a8561274a9190613b41565b603061275691906138ca565b60f81b81838151811061276c5761276b613bff565b5b60200101907effffffffffffffffffffffffffffffffffffffffffffffffffffffffffffff1916908160001a905350600a856127a89190613920565b9450612726565b8093505050505b919050565b600073ffffffffffffffffffffffffffffffffffffffff168273ffffffffffffffffffffffffffffffffffffffff16141561282b576040517f08c379a000000000000000000000000000000000000000000000000000000000815260040161282290613603565b60405180910390fd5b61283481611d48565b15612874576040517f08c379a000000000000000000000000000000000000000000000000000000000815260040161286b906134a3565b60405180910390fd5b612880600083836124be565b6001600360008473ffffffffffffffffffffffffffffffffffffffff1673ffffffffffffffffffffffffffffffffffffffff16815260200190815260200160002060008282546128d091906138ca565b92505081905550816002600083815260200190815260200160002060006101000a81548173ffffffffffffffffffffffffffffffffffffffff021916908373ffffffffffffffffffffffffffffffffffffffff160217905550808273ffffffffffffffffffffffffffffffffffffffff16600073ffffffffffffffffffffffffffffffffffffffff167fddf252ad1be2c89b69c2b068fc378daa952ba7f163c4a11628f55a4df523b3ef60405160405180910390a45050565b600080823b905060008111915050919050565b8280546129a890613a95565b90600052602060002090601f0160209004810192826129ca5760008555612a11565b82601f106129e357805160ff1916838001178555612a11565b82800160010185558215612a11579182015b82811115612a105782518255916020019190600101906129f5565b5b509050612a1e9190612a22565b5090565b5b80821115612a3b576000816000905550600101612a23565b5090565b6000612a52612a4d8461381a565b6137f5565b905082815260208101848484011115612a6e57612a6d613c62565b5b612a79848285613a53565b509392505050565b6000612a94612a8f8461384b565b6137f5565b905082815260208101848484011115612ab057612aaf613c62565b5b612abb848285613a53565b509392505050565b600081359050612ad2816143cd565b92915050565b600081359050612ae7816143e4565b92915050565b600081359050612afc816143fb565b92915050565b600081519050612b11816143fb565b92915050565b600082601f830112612b2c57612b2b613c5d565b5b8135612b3c848260208601612a3f565b91505092915050565b600082601f830112612b5a57612b59613c5d565b5b8135612b6a848260208601612a81565b91505092915050565b600081359050612b8281614412565b92915050565b600060208284031215612b9e57612b9d613c6c565b5b6000612bac84828501612ac3565b91505092915050565b60008060408385031215612bcc57612bcb613c6c565b5b6000612bda85828601612ac3565b9250506020612beb85828601612ac3565b9150509250929050565b600080600060608486031215612c0e57612c0d613c6c565b5b6000612c1c86828701612ac3565b9350506020612c2d86828701612ac3565b9250506040612c3e86828701612b73565b9150509250925092565b60008060008060808587031215612c6257612c61613c6c565b5b6000612c7087828801612ac3565b9450506020612c8187828801612ac3565b9350506040612c9287828801612b73565b925050606085013567ffffffffffffffff811115612cb357612cb2613c67565b5b612cbf87828801612b17565b91505092959194509250565b60008060408385031215612ce257612ce1613c6c565b5b6000612cf085828601612ac3565b9250506020612d0185828601612ad8565b9150509250929050565b60008060408385031215612d2257612d21613c6c565b5b6000612d3085828601612ac3565b9250506020612d4185828601612b73565b9150509250929050565b600060208284031215612d6157612d60613c6c565b5b6000612d6f84828501612aed565b91505092915050565b600060208284031215612d8e57612d8d613c6c565b5b6000612d9c84828501612b02565b91505092915050565b600060208284031215612dbb57612dba613c6c565b5b600082013567ffffffffffffffff811115612dd957612dd8613c67565b5b612de584828501612b45565b91505092915050565b60008060408385031215612e0557612e04613c6c565b5b600083013567ffffffffffffffff811115612e2357612e22613c67565b5b612e2f85828601612b45565b9250506020612e4085828601612b73565b9150509250929050565b600060208284031215612e6057612e5f613c6c565b5b6000612e6e84828501612b73565b91505092915050565b60008060408385031215612e8e57612e8d613c6c565b5b6000612e9c85828601612b73565b9250506020612ead85828601612b73565b9150509250929050565b612ec0816139df565b82525050565b612ecf816139f1565b82525050565b6000612ee08261387c565b612eea8185613892565b9350612efa818560208601613a62565b612f0381613c71565b840191505092915050565b6000612f1982613887565b612f2381856138ae565b9350612f33818560208601613a62565b612f3c81613c71565b840191505092915050565b6000612f5282613887565b612f5c81856138bf565b9350612f6c818560208601613a62565b80840191505092915050565b6000612f856032836138ae565b9150612f9082613c82565b604082019050919050565b6000612fa86026836138ae565b9150612fb382613cd1565b604082019050919050565b6000612fcb601c836138ae565b9150612fd682613d20565b602082019050919050565b6000612fee6024836138ae565b9150612ff982613d49565b604082019050919050565b60006130116019836138ae565b915061301c82613d98565b602082019050919050565b6000613034602c836138ae565b915061303f82613dc1565b604082019050919050565b6000613057601a836138ae565b915061306282613e10565b602082019050919050565b600061307a6033836138ae565b915061308582613e39565b604082019050919050565b600061309d6038836138ae565b91506130a882613e88565b604082019050919050565b60006130c0602a836138ae565b91506130cb82613ed7565b604082019050919050565b60006130e36029836138ae565b91506130ee82613f26565b604082019050919050565b6000613106602e836138ae565b915061311182613f75565b604082019050919050565b60006131296013836138ae565b915061313482613fc4565b602082019050919050565b600061314c6020836138ae565b915061315782613fed565b602082019050919050565b600061316f6036836138ae565b915061317a82614016565b604082019050919050565b60006131926031836138ae565b915061319d82614065565b604082019050919050565b60006131b5602c836138ae565b91506131c0826140b4565b604082019050919050565b60006131d86020836138ae565b91506131e382614103565b602082019050919050565b60006131fb6024836138ae565b91506132068261412c565b604082019050919050565b600061321e6029836138ae565b91506132298261417b565b604082019050919050565b6000613241602f836138ae565b915061324c826141ca565b604082019050919050565b60006132646021836138ae565b915061326f82614219565b604082019050919050565b60006132876042836138ae565b915061329282614268565b606082019050919050565b60006132aa6033836138ae565b91506132b5826142dd565b604082019050919050565b60006132cd6000836138a3565b91506132d88261432c565b600082019050919050565b60006132f06021836138ae565b91506132fb8261432f565b604082019050919050565b60006133136031836138ae565b915061331e8261437e565b604082019050919050565b61333281613a49565b82525050565b60006133448284612f47565b915081905092915050565b600061335b8285612f47565b91506133678284612f47565b91508190509392505050565b600061337e826132c0565b9150819050919050565b600060208201905061339d6000830184612eb7565b92915050565b60006060820190506133b86000830186612eb7565b6133c56020830185612eb7565b6133d26040830184613329565b949350505050565b60006080820190506133ef6000830187612eb7565b6133fc6020830186612eb7565b6134096040830185613329565b818103606083015261341b8184612ed5565b905095945050505050565b600060208201905061343b6000830184612ec6565b92915050565b6000602082019050818103600083015261345b8184612f0e565b905092915050565b6000602082019050818103600083015261347c81612f78565b9050919050565b6000602082019050818103600083015261349c81612f9b565b9050919050565b600060208201905081810360008301526134bc81612fbe565b9050919050565b600060208201905081810360008301526134dc81612fe1565b9050919050565b600060208201905081810360008301526134fc81613004565b9050919050565b6000602082019050818103600083015261351c81613027565b9050919050565b6000602082019050818103600083015261353c8161304a565b9050919050565b6000602082019050818103600083015261355c8161306d565b9050919050565b6000602082019050818103600083015261357c81613090565b9050919050565b6000602082019050818103600083015261359c816130b3565b9050919050565b600060208201905081810360008301526135bc816130d6565b9050919050565b600060208201905081810360008301526135dc816130f9565b9050919050565b600060208201905081810360008301526135fc8161311c565b9050919050565b6000602082019050818103600083015261361c8161313f565b9050919050565b6000602082019050818103600083015261363c81613162565b9050919050565b6000602082019050818103600083015261365c81613185565b9050919050565b6000602082019050818103600083015261367c816131a8565b9050919050565b6000602082019050818103600083015261369c816131cb565b9050919050565b600060208201905081810360008301526136bc816131ee565b9050919050565b600060208201905081810360008301526136dc81613211565b9050919050565b600060208201905081810360008301526136fc81613234565b9050919050565b6000602082019050818103600083015261371c81613257565b9050919050565b6000602082019050818103600083015261373c8161327a565b9050919050565b6000602082019050818103600083015261375c8161329d565b9050919050565b6000602082019050818103600083015261377c816132e3565b9050919050565b6000602082019050818103600083015261379c81613306565b9050919050565b60006020820190506137b86000830184613329565b92915050565b60006060820190506137d36000830186613329565b6137e06020830185613329565b6137ed6040830184612eb7565b949350505050565b60006137ff613810565b905061380b8282613ac7565b919050565b6000604051905090565b600067ffffffffffffffff82111561383557613834613c2e565b5b61383e82613c71565b9050602081019050919050565b600067ffffffffffffffff82111561386657613865613c2e565b5b61386f82613c71565b9050602081019050919050565b600081519050919050565b600081519050919050565b600082825260208201905092915050565b600081905092915050565b600082825260208201905092915050565b600081905092915050565b60006138d582613a49565b91506138e083613a49565b9250827fffffffffffffffffffffffffffffffffffffffffffffffffffffffffffffffff0382111561391557613914613b72565b5b828201905092915050565b600061392b82613a49565b915061393683613a49565b92508261394657613945613ba1565b5b828204905092915050565b600061395c82613a49565b915061396783613a49565b9250817fffffffffffffffffffffffffffffffffffffffffffffffffffffffffffffffff04831182151516156139a05761399f613b72565b5b828202905092915050565b60006139b682613a49565b91506139c183613a49565b9250828210156139d4576139d3613b72565b5b828203905092915050565b60006139ea82613a29565b9050919050565b60008115159050919050565b60007fffffffff0000000000000000000000000000000000000000000000000000000082169050919050565b600073ffffffffffffffffffffffffffffffffffffffff82169050919050565b6000819050919050565b82818337600083830152505050565b60005b83811015613a80578082015181840152602081019050613a65565b83811115613a8f576000848401525b50505050565b60006002820490506001821680613aad57607f821691505b60208210811415613ac157613ac0613bd0565b5b50919050565b613ad082613c71565b810181811067ffffffffffffffff82111715613aef57613aee613c2e565b5b80604052505050565b6000613b0382613a49565b91507fffffffffffffffffffffffffffffffffffffffffffffffffffffffffffffffff821415613b3657613b35613b72565b5b600182019050919050565b6000613b4c82613a49565b9150613b5783613a49565b925082613b6757613b66613ba1565b5b828206905092915050565b7f4e487b7100000000000000000000000000000000000000000000000000000000600052601160045260246000fd5b7f4e487b7100000000000000000000000000000000000000000000000000000000600052601260045260246000fd5b7f4e487b7100000000000000000000000000000000000000000000000000000000600052602260045260246000fd5b7f4e487b7100000000000000000000000000000000000000000000000000000000600052603260045260246000fd5b7f4e487b7100000000000000000000000000000000000000000000000000000000600052604160045260246000fd5b600080fd5b600080fd5b600080fd5b600080fd5b6000601f19601f8301169050919050565b7f4552433732313a207472616e7366657220746f206e6f6e20455243373231526560008201527f63656976657220696d706c656d656e7465720000000000000000000000000000602082015250565b7f4f776e61626c653a206e6577206f776e657220697320746865207a65726f206160008201527f6464726573730000000000000000000000000000000000000000000000000000602082015250565b7f4552433732313a20746f6b656e20616c7265616479206d696e74656400000000600082015250565b7f4552433732313a207472616e7366657220746f20746865207a65726f2061646460008201527f7265737300000000000000000000000000000000000000000000000000000000602082015250565b7f4552433732313a20617070726f766520746f2063616c6c657200000000000000600082015250565b7f4552433732313a206f70657261746f7220717565727920666f72206e6f6e657860008201527f697374656e7420746f6b656e0000000000000000000000000000000000000000602082015250565b7f596f75206e65656420746f20706179207468652070726963652e000000000000600082015250565b7f54686973206d657461646174612068617320616c7265616479206265656e207560008201527f73656420746f206d696e7420616e204e46542100000000000000000000000000602082015250565b7f4552433732313a20617070726f76652063616c6c6572206973206e6f74206f7760008201527f6e6572206e6f7220617070726f76656420666f7220616c6c0000000000000000602082015250565b7f4552433732313a2062616c616e636520717565727920666f7220746865207a6560008201527f726f206164647265737300000000000000000000000000000000000000000000602082015250565b7f4552433732313a206f776e657220717565727920666f72206e6f6e657869737460008201527f656e7420746f6b656e0000000000000000000000000000000000000000000000602082015250565b7f45524337323155524953746f726167653a2055524920736574206f66206e6f6e60008201527f6578697374656e7420746f6b656e000000000000000000000000000000000000602082015250565b7f4661696c656420746f2073656e64204156415800000000000000000000000000600082015250565b7f4552433732313a206d696e7420746f20746865207a65726f2061646472657373600082015250565b7f4f6e6c7920746865206f776e6572206f662074686520746f6b656e206964206360008201527f616e2063616c6c20746869732066756e6374696f6e2e00000000000000000000602082015250565b7f45524337323155524953746f726167653a2055524920717565727920666f722060008201527f6e6f6e6578697374656e7420746f6b656e000000000000000000000000000000602082015250565b7f4552433732313a20617070726f76656420717565727920666f72206e6f6e657860008201527f697374656e7420746f6b656e0000000000000000000000000000000000000000602082015250565b7f4f776e61626c653a2063616c6c6572206973206e6f7420746865206f776e6572600082015250565b7f526f79616c74696573206d757374206265206265747765656e20302520616e6460008201527f2034302500000000000000000000000000000000000000000000000000000000602082015250565b7f4552433732313a207472616e73666572206f6620746f6b656e2074686174206960008201527f73206e6f74206f776e0000000000000000000000000000000000000000000000602082015250565b7f4552433732314d657461646174613a2055524920717565727920666f72206e6f60008201527f6e6578697374656e7420746f6b656e0000000000000000000000000000000000602082015250565b7f4552433732313a20617070726f76616c20746f2063757272656e74206f776e6560008201527f7200000000000000000000000000000000000000000000000000000000000000602082015250565b7f4f6e6c79207468652061646472657373207468617420686173206c697374656460008201527f2074686520746f6b656e2063616e2063616e63656c20746865206c697374696e60208201527f672e000000000000000000000000000000000000000000000000000000000000604082015250565b7f54686520746f6b656e206e6565647320746f206265206c697374656420696e2060008201527f6f7264657220746f20626520626f756768742100000000000000000000000000602082015250565b50565b7f54686520746f6b656e2063616e206f6e6c79206265206c6973746564206f6e6360008201527f6500000000000000000000000000000000000000000000000000000000000000602082015250565b7f4552433732313a207472616e736665722063616c6c6572206973206e6f74206f60008201527f776e6572206e6f7220617070726f766564000000000000000000000000000000602082015250565b6143d6816139df565b81146143e157600080fd5b50565b6143ed816139f1565b81146143f857600080fd5b50565b614404816139fd565b811461440f57600080fd5b50565b61441b81613a49565b811461442657600080fd5b5056fea2646970667358221220b5be0c741916d1a869518a4f12564f03825cbed8b28de7435547df277bc2f77164736f6c63430008060033",
  "immutableReferences": {},
  "source": "// SPDX-License-Identifier: MIT\r\npragma solidity ^0.8.6;\r\n\r\nimport './Collectible.sol';\r\n\r\ncontract Marketplace is Collectible {\r\n\r\n    using SafeMath for uint256;\r\n\r\n    struct Listing {\r\n        uint256 tokenId;\r\n        uint256 price;\r\n        address owner;\r\n    }\r\n\r\n    mapping (uint256 => Listing) public tokenIdToListing;\r\n    mapping (uint256 => bool) public hasBeenListed;\r\n\r\n    // Mapping used for listing when the owner transfers the token to the contract and would then wish to cancel the listing\r\n    mapping (uint256 => address) public claimableByAccount;\r\n\r\n    /**\r\n     * @dev Emitted when a `tokenId` has been listed for a `price` by a `seller`\r\n    */\r\n    event ItemListed(\r\n        uint256 tokenId,\r\n        uint256 price, \r\n        address seller\r\n    );\r\n\r\n    /**\r\n     * @dev Emitted when a `tokenId` listing for a `price` has been cancelled by a `seller`\r\n    */\r\n    event ListingCancelled(\r\n        uint256 tokenId,\r\n        uint256 price, \r\n        address seller\r\n    );\r\n\r\n    /**\r\n     * @dev Emitted when a `tokenId` has been bought for a `price` by a `buyer`\r\n    */\r\n    event ItemBought(\r\n        uint256 tokenId,\r\n        uint256 price,\r\n        address buyer\r\n    );\r\n\r\n    modifier onlyTokenOwner(uint256 tokenId) {\r\n        require(\r\n            msg.sender == ownerOf(tokenId),\r\n            \"Only the owner of the token id can call this function.\"\r\n        );\r\n        _;\r\n    }\r\n\r\n    modifier onlyListingAccount(uint256 tokenId) {\r\n        require(\r\n            msg.sender == claimableByAccount[tokenId],\r\n            \"Only the address that has listed the token can cancel the listing.\"\r\n        );\r\n        _;\r\n    }\r\n\r\n\r\n    function listItem(\r\n        uint256 tokenId, \r\n        uint256 price\r\n    ) public onlyTokenOwner(tokenId) {\r\n        require(!hasBeenListed[tokenId], \"The token can only be listed once\");\r\n\r\n         //send the token to the smart contract\r\n        _transfer(msg.sender, address(this), tokenId);\r\n        claimableByAccount[tokenId] = msg.sender;\r\n\r\n        tokenIdToListing[tokenId] = Listing(\r\n            tokenId,\r\n            price,\r\n            msg.sender\r\n        );\r\n\r\n        hasBeenListed[tokenId] = true;\r\n        emit ItemListed(\r\n            tokenId,\r\n            price,\r\n            msg.sender\r\n        );\r\n    }\r\n\r\n    function cancelListing(uint256 tokenId) public onlyListingAccount(tokenId) {\r\n        //send the token from the smart contract back to the one who listed it\r\n        _transfer(address(this), msg.sender, tokenId);\r\n        uint256 price = tokenIdToListing[tokenId].price;\r\n\r\n        delete claimableByAccount[tokenId];\r\n        delete tokenIdToListing[tokenId];\r\n        hasBeenListed[tokenId] = false;\r\n\r\n        emit ListingCancelled(\r\n            tokenId,\r\n            price,\r\n            msg.sender\r\n        );\r\n    }\r\n\r\n    function buyItem(uint256 tokenId) public payable {\r\n        require(hasBeenListed[tokenId], \"The token needs to be listed in order to be bought!\");\r\n        require(tokenIdToListing[tokenId].price == msg.value, \"You need to pay the price.\");\r\n\r\n        //split up the value for owner and for creator\r\n\r\n        uint256 royaltyForCreator = tokenIdToItem[tokenId].royalty.mul(msg.value).div(100);\r\n        uint256 remainder = msg.value.sub(royaltyForCreator);\r\n\r\n        //send to creator\r\n        (bool sentRoyalty, ) = tokenIdToItem[tokenId].creator.call{value: royaltyForCreator}(\"\");\r\n        require(sentRoyalty, \"Failed to send AVAX\");\r\n\r\n        //send to owner\r\n        (bool sentRemainder, ) = tokenIdToItem[tokenId].owner.call{value: remainder}(\"\");\r\n        require(sentRemainder, \"Failed to send AVAX\");\r\n\r\n        //transfer the token from the smart contract back to the buyer\r\n        _transfer(address(this), msg.sender, tokenId);\r\n\r\n        delete tokenIdToListing[tokenId];\r\n        hasBeenListed[tokenId] = false;\r\n\r\n        emit ItemBought(\r\n            tokenId,\r\n            msg.value,\r\n            msg.sender\r\n        );\r\n    }\r\n\r\n}",
  "sourcePath": "C:\\Users\\Metodi\\Desktop\\ProjectsDapp\\avax-tutorial-nft\\contracts\\Marketplace.sol",
  "compiler": {
    "name": "solc",
    "version": "0.8.6+commit.11564f7e.Emscripten.clang"
  },
  "schemaVersion": "3.4.2",
  "updatedAt": "2021-08-03T01:08:00.607Z",
  "networkType": "ethereum",
  "devdoc": {
    "events": {
      "ItemBought(uint256,uint256,address)": {
        "details": "Emitted when a `tokenId` has been bought for a `price` by a `buyer`"
      },
      "ItemListed(uint256,uint256,address)": {
        "details": "Emitted when a `tokenId` has been listed for a `price` by a `seller`"
      },
      "ListingCancelled(uint256,uint256,address)": {
        "details": "Emitted when a `tokenId` listing for a `price` has been cancelled by a `seller`"
      }
    },
    "kind": "dev",
    "methods": {
      "approve(address,uint256)": {
        "details": "See {IERC721-approve}."
      },
      "balanceOf(address)": {
        "details": "See {IERC721-balanceOf}."
      },
      "createCollectible(string,uint256)": {
        "details": "create a collectible with a `metadata` for the msg.sender Requirements: - `metadata` has not been minted before - `royalty` must be between 0% and 40% Emits a {Transfer} event - comes from the ERC-721 smart contract."
      },
      "getApproved(uint256)": {
        "details": "See {IERC721-getApproved}."
      },
      "isApprovedForAll(address,address)": {
        "details": "See {IERC721-isApprovedForAll}."
      },
      "name()": {
        "details": "See {IERC721Metadata-name}."
      },
      "owner()": {
        "details": "Returns the address of the current owner."
      },
      "ownerOf(uint256)": {
        "details": "See {IERC721-ownerOf}."
      },
      "renounceOwnership()": {
        "details": "Leaves the contract without owner. It will not be possible to call `onlyOwner` functions anymore. Can only be called by the current owner. NOTE: Renouncing ownership will leave the contract without an owner, thereby removing any functionality that is only available to the owner."
      },
      "safeTransferFrom(address,address,uint256)": {
        "details": "See {IERC721-safeTransferFrom}."
      },
      "safeTransferFrom(address,address,uint256,bytes)": {
        "details": "See {IERC721-safeTransferFrom}."
      },
      "setApprovalForAll(address,bool)": {
        "details": "See {IERC721-setApprovalForAll}."
      },
      "supportsInterface(bytes4)": {
        "details": "See {IERC165-supportsInterface}."
      },
      "symbol()": {
        "details": "See {IERC721Metadata-symbol}."
      },
      "tokenURI(uint256)": {
        "details": "See {IERC721Metadata-tokenURI}."
      },
      "transferFrom(address,address,uint256)": {
        "details": "See {IERC721-transferFrom}."
      },
      "transferOwnership(address)": {
        "details": "Transfers ownership of the contract to a new account (`newOwner`). Can only be called by the current owner."
      }
    },
    "version": 1
  },
  "userdoc": {
    "kind": "user",
    "methods": {},
    "version": 1
  }
}